:100000000080002025AF0000EDAD0000F1AD000044
:10001000EDAD0000EDAD0000EDAD00000000000012
:10002000000000000000000000000000EDAD000036
:10003000EDAD000000000000EDAD0000EDAD0000F2
:10004000AD600000F1790000117A0000317A000003
:10005000517A0000EDAD0000A95C0000795C000061
:10006000455F00002955000031550000B1710000C6
:10007000B971000041520000E5770000A16B00005B
:10008000B96B0000EDAD0000F1580000D551000043
:100090002D6C00003D6C0000E56F0000F16F00006A
:1000A000C56B0000D56B0000F96B0000096C000007
:1000B000D1790000E1790000EDAD0000EDAD000068
:1000C000EDAD000059500000D95000000953000068
:1000D000CD6F0000D96F0000F94E0000EDAD0000BB
:1000E000C1710000295C0000AD6B0000E55B000001
:1000F000D55D0000214C0000E94A0000000000002E
:1001000000000000000000000000000000000000EF
:1001100000000000000000000000000000000000DF
:10012000EDAD0000EDAD0000EDAD0000EDAD000067
:10013000EDAD0000EDAD0000EDAD0000EDAD000057
:10018000FFFFFFFFFFFFFFFFFFFFFFFFFFFFFFFF7F
:1001900003329CA77F000000FFFFFFFFFFFFFFFF70
:1001A00010B5054C237833B9044B13B10448AFF3B1
:1001B00000800123237010BD001400200000000007
:1001C000B489010008B5034B1BB103490348AFF3E1
:1001D000008008BD0000000004140020B489010064
:1001E000154B002B08BF134B9D46A3F5803A002109
:1001F0008B460F461348144A121A0EF073FA0F4B2F
:10020000002B00D098470E4B002B00D098470020C1
:10021000002104000D000D48002802D00C4812F007
:100220001DFE0DF023FF200029000AF061FD0DF0F6
:100230000DFF00BF0000080000800020000000004B
:100240000000000000140020242D00205D2E01007D
:10025000654001000DF02EBF0DF0B4BE0DF032BFB1
:10026000704700BF704700BF704700BF704700BFB6
:1002700060B170B5044616460D46202200210830B4
:100280000EF030FAC4E90065002070BD6FF0150073
:10029000704700BF98B191B170B505460C4601207A
:1002A0002821FFF7D9FF064660B128602146046087
:1002B0000120FFF7D1FF706038B1002070BD6FF0F2
:1002C000150070476FF00B0070BD3046FFF7C6FF9A
:1002D0006FF00B0070BD00BF50B110B50446406810
:1002E00008B1FFF7BBFF2046FFF7B8FF002010BDA5
:1002F0004FF0FF30704700BFD0B1C9B130B4C5680E
:10030000C4698268A542836909D808D1D31A0B60F1
:1003100002689A4228BF002006D330BC70470468A8
:100320002244D31A0B60F3E70A606FF4FA60F4E733
:100330006FF01500704700BF2DE9F04182B01F46F5
:100340009DF8203000283FD01646002A3CD0002FD0
:100350003AD088460446CBB190F820307BBB01A947
:10036000FFF7CAFF6FF4FA63984204D1D4E902237D
:10037000013BC4E90623019BEBB1984528BF984691
:10038000B8F1000F23D004F1180503E0007C04F15C
:100390000805A0B921682A686368891A414528BF01
:1003A00041460122E960396029680B4433602A72B2
:1003B00002B0BDE8F081184602B0BDE8F0816FF0F0
:1003C0000F0002B0BDE8F0816FF01500F0E76FF0AC
:1003D0000A00EDE72DE9F04F002687B005960028CA
:1003E0005DD000295BD0002A59D01D4600F11807C6
:1003F00000F1080304469246B146B046B346B54202
:1004000008BF1F460391AAEB0806009505AB04AA96
:1004100031462046FFF790FF10F1100FF5D010F194
:100420000B0FF2D06FF4FA63059E984208BF4FF0AD
:1004300001097EB3DDE9032302EB08001DB3194671
:1004400032460EF0D9F83B7A8BB13B68F9682268E6
:100450000B44934206D3B3FBF2F0796802FB1033EE
:10046000013179603B60C7F80CB087F808B0B04440
:10047000C245C8D8B9F1000F0CBF00206FF4FA6074
:1004800007B0BDE8F08F3246014618460EF0B4F8CA
:10049000059ED8E74FF0FF3007B0BDE8F08F6FF052
:1004A0001500EDE710B5002482B00094FFF744FF7B
:1004B00002B010BD10B5012482B00094FFF73CFFDC
:1004C00002B010BDC8B1037CA3B183684169026862
:1004D0000B44934210B406D3B3FBF2F4C16802FBA1
:1004E00014330131C160002283604261027410BC88
:1004F000104670474FF0FF3070476FF0150070479F
:10050000D8B190F82030ABB18369416A02680B44DE
:10051000934210B406D3B3FBF2F4C16902FB143367
:100520000131C16100228361426280F8202010BC49
:10053000104670474FF0FF3070476FF0150070475E
:100540000023FFF747BF00BF0123FFF743BF00BFF2
:1005500088B138B5082104460120FFF77DFE054625
:1005600060B14FF480710120FFF776FE286040B142
:100570002560002038BD6FF0150070476FF00B004C
:1005800038BD2846FFF76AFE6FF00B0038BD00BF8C
:10059000027903464079904209D010B41C680020CB
:1005A000A25C0A701A7901321A7110BC70474FF0C0
:1005B000FF30704710B4427903460079541C8442DE
:1005C00007D000201C68A1545A7901325A7110BC1E
:1005D00070474FF0FF30FAE718B1006808B1FFF735
:1005E0003DBE7047401A8010704700BF20B143697C
:1005F00000201B68196070474FF0FF30704700BF44
:1006000020B1436900205B68196070474FF0FF30EC
:10061000704700BF48B141B100230B6042691268C6
:100620001AB1184613680B6070474FF0FF307047DF
:1006300048B141B100230B60426952681AB11846B3
:1006400013680B6070474FF0FF307047F0B170B522
:1006500044690E4601200C216568FFF7FDFD90B14D
:100660000023C0E90065836005B1A860002223680B
:10067000C0E90152606023B1A36800200133A36088
:1006800070BD2060F8E74FF0FF3070BD4FF0FF30D5
:10069000704700BF48B341B300230B60436970B596
:1006A0009C68FCB11868D0E9015205B1AA605E6887
:1006B00092B155601D68AA4209D01A6086B10268DD
:1006C000013C9C600A60FFF7C9FD002070BD5E60C0
:1006D000002EF4D11E60F2E71D68002DFAD01A60DA
:1006E0005A60ECE74FF0FF3070BD4FF0FF307047BD
:1006F000F0B1E9B138B500230B6043699A68A2B143
:100700005868D0E9014504B1A56005B16C601D6869
:100710005C6045B13CB10468013A9A600C60FFF737
:100720009DFD002038BD1C60F5E74FF0FF3038BD5F
:100730004FF0FF30704700BF00283DD0F8B50F469E
:100740000646182101201546FFF786FD04460028BD
:100750002FD01C210120FFF77FFD034630B3184A3C
:100760003460002D08BF1546012F6061C5601BD0A5
:10077000032F0CD1134A2260134D14481449154A13
:10078000C4E90150C4E9031200205B61F8BD124ABC
:10079000124D22600E480D49114AC4E90150C4E9C6
:1007A000031200205B61F8BD0B4AE4E72046FFF727
:1007B00055FD4FF0FF30F8BD4FF0FF30704700BFE0
:1007C000E5050000FD080000950600001506000084
:1007D00031060000ED0500004D060000F1060000A6
:1007E00001060000A0B143691B698BB910B504462E
:1007F00082B001A92046FFF74DFF0028F9D06069BB
:10080000FFF72CFD2046FFF729FD002002B010BDA8
:100810004FF0FF30704700BF30B370B544690D46EC
:1008200001200C212668FFF717FDD0B100230560D9
:10083000C0E9013606B17060D4E9002390420CD0C3
:10084000206023B10020A3680133A36070BDA368BA
:10085000606001330020A360F8E7002BF2D1236031
:10086000F0E74FF0FF3070BD4FF0FF30704700BF32
:1008700000283FD02DE9F041D0E9003586B00F4681
:1008800004460593E2B15B68AB4228D00C210120FD
:10089000D5F80880FFF7E0FC48B345602E46454692
:1008A0000760C0F80880B060C0E9016505B1686004
:1008B0000020226893680133936006B0BDE8F081A0
:1008C0001B68AB420FD00C2101206E68FFF7C4FCFF
:1008D00068B1C0E900768560002EE5D0E3E76846A0
:1008E000FFF7B4FEE9E76846FFF796FFE5E74FF04C
:1008F000FF30E2E74FF0FF30704700BF00B370B544
:1009000045690E462C6814B910E0A46874B1EB6810
:100910003146206898470028F7DDAC61314605F183
:1009200014000022BDE87040FFF7A2BF6B6831469B
:10093000AB6105F114000122BDE87040FFF798BFDC
:100940004FF0FF30704700BF10B51C46D3170DF0B5
:1009500067F9226010BD00BF08B5D3170DF060F92C
:1009600008BD00BFD0E900305B6E1847D0E9003009
:100970009B6E18470028F0B42ADB0126814208DC70
:10098000184A053082FB0043C017C0EBA300814228
:10099000F7DD0546134C0A270CE084FB00C084FBFE
:1009A00001C1D3EBA000C2EBA10115D00129D8BF32
:1009B00095FBF7F5CA17C3170029EED1094AC317EB
:1009C00020B182FB0010D3EBA000F8D1F0BC70473F
:1009D00040424FF0FF36D1E701FB05F006FB00F087
:1009E000F4E700BF676666662DE9F0410F462549CA
:1009F00015461E4680469DF818400EF027FB00283D
:100A00003DD0002211460EF003FC386074B31E493D
:100A100000200EF01BFB044620B91C490EF016FB0B
:100A2000044664B30A22002120460EF0F1FB286040
:100A30002378621C302B0ED100280CDD336802E0D5
:100A40002968002907DD03EB83035B00336012F89C
:100A5000011B3029F4D0386870B998F800302D2B7C
:100A600002D12B685B422B60BDE8F081204608492B
:100A70000EF0ECFA0446D4E70020BDE8F0816FF0F8
:100A80001500F1E7C8760100CC760100D0760100B0
:100A9000B880010003682DE9F041D3E91447A7B1FC
:100AA00090460E46002501E0AF420ED0204631466A
:100AB0000EF030F90135B0340028F5D1B8F1010F4E
:100AC00018BF6FF01500BDE8F0816FF01200BDE8AF
:100AD000F08100BF2DE9F04FD0F800B081B0DBF815
:100AE0005CA0BAF1000F11D0DBF858909846174679
:100AF0000E4600254C4601E0AA450CD02046314662
:100B00000EF008F9013550340028F5D16FF00100DE
:100B100001B0BDE8F08FDBE9144ABAF1000F21D033
:100B2000002503E0AA4504F1B0041BD0314620465D
:100B30000EF0F0F801350028F4D1D4F8AC305A1C8E
:100B40000CD04146384603EB830309EB03131B6CBF
:100B5000074A01B0BDE8F04F0EF002B8387001B09E
:100B6000BDE8F08F6FF0120001B0BDE8F08F00BF5C
:100B7000907901002DE9F0478A46096882B029B3CF
:100B80009946164680465746002404E05AF8251038
:100B90000AEB8507D1B130460EF0BCF8013424B21F
:100BA00004EB84050028F1D1B9F1000F0BD1FC68EA
:100BB00064B1D8E90223D8E900017D680095A04717
:100BC00002B0BDE8F0873C69002CF2D16FF0010063
:100BD00002B0BDE8F08700BF2DE9F043046883B0A0
:100BE000676D246D67B3984691460E46002503E075
:100BF000AF4204F1B00423D0314620460EF08AF80B
:100C000001350028F4D194F8A830CBB104F178056F
:100C1000284601A9FFF770FB00280EDBE06D019B61
:100C20004946C01A804528BF804628464246FFF7FD
:100C300087FC10EA200038BF404603B0BDE8F083CF
:100C40006FF0150003B0BDE8F08300BF2DE9F0435D
:100C5000046883B0D4F85490246DB9F1000F2AD001
:100C60001F4690460E46002503E0A94504F1B00456
:100C700021D0314620460EF04DF801350028F4D140
:100C800094F8A830BBB17834204601A9FFF734FBB3
:100C900000280DDB0198874228BF074687B14146EF
:100CA00020463A46FFF750FC10EA200038BF38468D
:100CB00003B0BDE8F0836FF0150003B0BDE8F0832A
:100CC0006FF00A00F4E700BF2DE9F047D0F800907C
:100CD000D9E91448B8F1000F2FD00F4682460025FD
:100CE00003E0A84504F1B00427D0394620460EF0B1
:100CF00011F8013506460028F3D194F8A83043B323
:100D000094F8A930EBB9D4F8AC305A1C0BD0D9F810
:100D1000582003EB830302EB03139A6CD26812B1E1
:100D2000586C904758B90022636DA2655B6A1846FB
:100D30002BB1606CBDE8F04718474FF0FF30BDE8BD
:100D4000F087E06FFFF78AFADAF8009084F8A9607C
:100D5000D9E76FF01500F2E707F024B807F042B8C2
:100D60002DE9F04F046881B0D4F854B09DF8289074
:100D7000246DBBF1000F00F0A280984616468A460B
:100D80000746002504E0AB4504F1B00400F097806D
:100D9000514620460DF0BEFF01350028F3D194F8EE
:100DA000A830002B00F0A7804FF0FF33616D8A88D8
:100DB000C2F12002D34013EA080800F099808A6843
:100DC000054643464FF0010C84F870906067C4F804
:100DD000588005E0AEEB00055B0802F1240214D058
:100DE000D907F9D591698978C908B5FBF1F001FBFC
:100DF00010508C4505EB410E38BF8C460028E9D1D8
:100E00005B080D4402F12402EAD1B5FBFCF30CFBB4
:100E100013530BB16544ED1A05FB06F9D4F8A01085
:100E20002566C4F85C906666C9B1D4F8A430B3B145
:100E3000994563D8B3FBF9F209FB1239A3EB090911
:100E40004A4604F17800FFF713FA051E1CDA94F8FD
:100E5000A930002B42D1284601B0BDE8F08F94F8AC
:100E6000A930002B31D101214846FFF7F5F90146A1
:100E7000002843D001234A4684F8A93004F17800C1
:100E8000FFF7F6F9051EE2DB636D1B6A23B14146ED
:100E9000606C9847051EDADBD4F8AC305A1CDAD007
:100EA0003A6803EB8303926D02EB03139A6C92682A
:100EB000002AD0D0586C01B0BDE8F04F10476FF059
:100EC0001205284601B0BDE8F08FE06FFFF7C6F9C4
:100ED0000023D4F85C9084F8A930C4E7E06FFFF7F2
:100EE000BDF90023284684F8A93001B0BDE8F08F91
:100EF0006FF00105AFE76FF01505ACE76FF00B057C
:100F0000A9E700BF2DE9F04F89468FB0B3F1FF3F4D
:100F100014BF98464FF000085AB3174630B3D9F8BB
:100F20000030002B27DD00263446DFF854B0DFF810
:100F300054A0051DA8EB040121EAE17155F8043C19
:100F40005A4638190DF00CFE0444A8EB0401381978
:100F500055F8083B21EAE17152460DF001FED9F83F
:100F6000003001369E420444E4DB20460FB0BDE869
:100F7000F08F01AFD2E700200FB0BDE8F08F00BFC7
:100F8000D4760100F47601002DE9F84FD0F800B0D6
:100F9000DBF85C708FB1DBF858809A4691460E46BC
:100FA0000025444601E0AF420BD0204631460DF00B
:100FB000B1FE013550340028F5D16FF00100BDE8D5
:100FC000F88FDBE91445BDB14FF0000B03E05D4540
:100FD00004F1B00410D0314620460DF09BFE0BF119
:100FE000010B0028F3D199F800304BB94FF0FF33D3
:100FF000C4F8AC30BDE8F88F6FF01200BDE8F88F90
:10100000054602E00135AF420CD0404649460DF09E
:1010100081FE08F150080028F4D15046C4F8AC50C5
:10102000BDE8F88F6FF01500E4E700BF2DE9F04F41
:1010300083B09DF830B0002A37D0002935D09046D3
:101040009A4681460027019107EBC70208EB82020E
:10105000D6692EB3316819B334460025227A032AA3
:1010600014D150460DF056FE80B9BBF1000F21D1CE
:10107000E568D5B1D9E901125B46AC466468D9F898
:1010800000000C9403B0BDE8F04F604701352DB26D
:1010900005EB850456F8241006EB84040029DDD105
:1010A0000137019B3FB29F42CEDB6FF0010003B0DE
:1010B000BDE8F08F2569002DF7D0D9E901126668E7
:1010C000D9F800400346AC4620460C9603B0BDE874
:1010D000F04F60472DE9F04F99B0229C9A46631C6F
:1010E00014BFA3464FF0000B0690084614BF2BEA2E
:1010F000EB715946BAF1000F00F0B582134600902B
:10110000B34A50460DF02CFD069A04469368002B16
:1011100000F0A3829288002A00F0B2820022079297
:10112000079AAC4902EBC20603EB8606327996F8C1
:10113000213051F82220002B40F0838196F8223094
:10114000002B00F08C8196F82310B368002900F082
:101150008181F1680BA8CDE900219F490DF046FD82
:10116000ABEB040121EAE1710BAB0AEB04009B4AF3
:101170000DF0F6FC33680444ABEB040121EAE171A5
:101180000AEB04004BB1964A0DF0EAFC0444ABEBC9
:10119000040121EAE1710AEB040096F82050914A1B
:1011A000914B002D18BF1346904A0DF0D9FCB2693F
:1011B0000444ABEB040C2CEAEC710AEB0400CAB15A
:1011C00017798B4B8B4D002F18BF1D46D77873694D
:1011D000049797780397577802971778864ACDE94E
:1011E00000570DF0BDFC0444ABEB040C2CEAEC7191
:1011F0000AEB0400F2691746002A78D01368002B26
:1012000075D01425DFF81482DFF814922FE03B7AB2
:10121000012B7BD0C0F09A80022B61D1386896F800
:101220002020764B00907648ABEB0401002A08BFE3
:101230000346744A21EAE1710AEB04000DF090FCC8
:101240000444ABEB040121EAE1710AEB040003342E
:101250004A460DF085FCABEB040CF2692CEAEC710C
:101260000AEB0400535957191435002B3FD097F857
:1012700008E02CEAEC71BEF1030FF3D042460DF00A
:101280006FFC96F823300444002BC0D13B7AABEBC3
:101290000401012B21EAE1710AEB04000DD07ED399
:1012A000022BD4D13F6896F82020544B0097544F1E
:1012B000002A08BF3B46534AC0E73B6896F82070B7
:1012C00001933279434BDFF834C153F822204C4B61
:1012D0000092002F18BF63464B4A0DF041FC0444B6
:1012E000ABEB040121EAE1710AEB0400AFE7474AE6
:1012F0000DF036FC0699079A8B88013293420792CB
:1013000004F10A0440F3B0808B6809E73379314A6D
:101310003F6852F8232096F82000384BCDE901278A
:101320000092374AABEB0401002808BF1346384A45
:1013300021EAE1710AEB04000DF012FC0444ABEB6E
:10134000040121EAE1710AEB040080E796F82230FB
:10135000002B00F08B813A68337996F82070049264
:101360001C4A274852F82320F368CDE90223B168CC
:10137000224B0191ABEB0401002F08BF0346009202
:1013800021EAE1710AEB0400224A0DF0E9FB044472
:10139000ABEB040121EAE1710AEB040057E796F890
:1013A000222096F82030002A3CD03A68094F029259
:1013B000B268DFF848C00192327957F82270104ABB
:1013C0000097002B18BF62461346134AB4E700BFCC
:1013D000B077010004770100D4770100E8770100BD
:1013E000FC770100907701009877010008780100F0
:1013F000A0770100A477010018780100A877010008
:10140000AC77010064780100AC780100D878010065
:101410007878010090780100C07801004C780100D4
:10142000487801003A68994F01923279DFF88CC20E
:1014300057F822200092964A002B18BF62461346A6
:101440004AE7F168934B0BA853F8213092490DF00D
:10145000CDFB85E691490BA80DF0C8FB80E611464F
:101460000BA80DF035FD7BE6069BDB689BB11B6886
:101470008BB114258A4E069FABEB04010AEB0400E6
:1014800021EAE17132460DF06BFBFB6804445B59C5
:101490001435002BF0D1069A9368002B67D0928800
:1014A000002A64D00021CDF820B0A3460C46CDF828
:1014B00024A004EBC40A03EB8A03D3F81C9007931F
:1014C0004B46B9F1000F49D0D9F80050002D45D056
:1014D0004FF0140807E059F8085009EB080308F129
:1014E0001408002D38D01B7A032BF4D1ECB100275F
:1014F000069B9E68F3699BB1186888B19A4602E022
:101500005AF8140F60B19AF80830032BF8D1294625
:101510000DF000FC0028DED05AF8140F0028F2D19C
:101520000137A74206F12406E4D1089B0998A3EBF2
:101530000B0158442B4621EAE171594A0DF010FB8A
:10154000079B8344D3F81C9059F8085009EB080313
:1015500008F11408002DC6D1069B9A880134A242D6
:1015600002DD069B9B68A4E75C46DDE908BA069F9E
:101570003B6993B11B6883B114254A4EABEB040160
:101580000AEB040021EAE17132460DF0E9FA3B6909
:1015900004445B591435002BF0D1069A136B002BD1
:1015A00047D0ABEB04010AEB040021EAE1713E4AAB
:1015B0000DF0D6FA069B2C349B69002B40D0069F79
:1015C000ABEB04017B6921EAE1710AEB0400002B1B
:1015D00051D0364A0DF0C4FA7B6912341B6883B1CE
:1015E00014252F4EABEB04010AEB040021EAE17154
:1015F00032460DF0B5FA7B6904445B591435002B73
:10160000F0D1ABEB04010AEB040021EAE171284AB6
:101610000DF0A6FA0934ABEB040121EAE1710AEB03
:101620000400244A0DF09CFA04F1090019B0BDE849
:10163000F08F536B002BB4D1069B9B69002BBED15E
:10164000069BDB69002BBAD1069B9B6A002BB6D1A7
:10165000069BDB6A002BB2D1DDE7069BDB68002B23
:101660007FF405AF83E70DF12C0A47E56FF0150015
:1016700019B0BDE8F08F104A0DF072FA1434CAE7C1
:10168000069BDB68002B3FF472AFF0E604770100A5
:10169000AC770100EC7D0100CC770100E077010020
:1016A000E4780100FC7801001C7901004C7901000C
:1016B00060790100847901006C790100A87701004C
:1016C0002DE9F04FD0F8009099B0D9F854800E462B
:1016D00017469A46D9F85040B8F1000F45D000257A
:1016E00003E0A84504F1B0043FD0314620460DF098
:1016F00011FB01350028F4D13E7806BB8649786895
:101700000DF008FBD8B9636D5B6B002B00F0EE8029
:1017100005AA08AB814950460DF08AFA022840F02C
:10172000ED80636D606C5B6B089A05999847229B0E
:1017300010EA200038BF184619B0BDE8F08FD7F87E
:10174000089099F80030002B3ED11D460B93636C36
:10175000229ACDF824A00A920893042E00F2D98090
:10176000DFE806F09D9A98987D00D9E91648B8F10F
:10177000000F00F0B680002504E0A84504F15004F5
:1017800000F0AF80314620460DF0C4FA0135002844
:10179000F3D1626C3B782299042B089208BFA36CAA
:1017A0007A680A910B90CDF824A008BF5968137885
:1017B00018BF0146002B00F09E80012308A8FFF708
:1017C000D9F919B0BDE8F08FA6F10202B2FA82F29F
:1017D000D4F854805209B8F804300292002B00F07B
:1017E000858003940026DFF84CB1144621E090F880
:1017F0002230002B5BD090F823108368002951D051
:10180000C16808A8CDE9002145490DF0EFF908A904
:1018100048460DF07FFA013636B230B9D8F80830B4
:101820001D4495F82030A34246D0B8F804309E42BB
:101830005CDA06EBC605D8F80800AD00284402794A
:1018400090F821305BF82220002BD0D0C3683549B6
:1018500008A851F8233034490DF0C8F9D7E7636D73
:10186000D9687A681378002B45D0012308A8FFF7C0
:1018700081F9831CA5D13B78042B37D10125616DFB
:101880007B688A6808A889880095FFF7CFFB19B0A4
:10189000BDE8F08FE969E4E7636D5969E1E7636DDD
:1018A0001969DEE7214908A80DF0A0F9AFE7114654
:1018B00008A80DF00DFBAAE79DF80820AB688DF88D
:1018C00016202A79ADF8143095F823308DF81720BA
:1018D0002A698DF8183005AB039C07920B933E786C
:1018E00035E76FF0120019B0BDE8F08F6FF001001E
:1018F00019B0BDE8F08F6FF0150062E705AA5046F9
:101900000B490DF095F90128F5D1059B2298236527
:1019100057E70021A5E700BF107E0100247E0100EB
:10192000D4770100EC7D0100CC770100E077010065
:10193000307E0100047701002DE9F04FD0F80090CF
:1019400099B0D9F854800E4617469A46D9F85040B7
:10195000B8F1000F3DD0002503E0A84504F1B00424
:1019600037D0314620460DF0D5F901350028F4D1A5
:101970003E78C6B97C4978680DF0CCF998B9636DAA
:101980001B6B002B00F0E68018AA42F8400D216D79
:10199000606C9847002848DB5046089B734A2299A0
:1019A0000DF0DEF841E0D7F8089099F80030002BF0
:1019B0003ED11D460B93636C229ACDF824A00A9267
:1019C0000893042E00F2CE80DFE806F09D9A9898E6
:1019D0007D00D9E91648B8F1000F00F0B680002567
:1019E00004E0A84504F1500400F0AF8031462046E1
:1019F0000DF090F901350028F3D1626C3B78229903
:101A0000042B089208BFA36C7A680A910B90CDF85A
:101A100024A008BF5968137818BF0146002B00F0B6
:101A20009E80002308A8FFF7A5F819B0BDE8F08F45
:101A3000A6F10202B2FA82F2D4F854805209B8F840
:101A400004300292002B00F0858003940026DFF81A
:101A500030B1144621E090F82230002B5BD090F892
:101A600023108368002951D0C16808A8CDE900215E
:101A70003F490DF0BBF808A948460DF04BF9013677
:101A800036B230B9D8F808301D4495F82030A3425A
:101A900046D0B8F804309E425CDA06EBC605D8F8AA
:101AA0000800AD002844027990F821305BF822202C
:101AB000002BD0D0C3682F4908A851F823302E49F5
:101AC0000DF094F8D7E7636DD9687A681378002B26
:101AD00045D0002308A8FFF74DF8831CA5D13B781B
:101AE000042B37D10025616D7B688A6808A8898836
:101AF0000095FFF79BFA19B0BDE8F08FE969E4E7BC
:101B0000636D5969E1E7636D1969DEE71B4908A850
:101B10000DF06CF8AFE7114608A80DF0D9F9AAE767
:101B20009DF80820AB688DF816202A79ADF814309E
:101B300095F823308DF817202A698DF8183005ABF9
:101B4000039C07920B933E7835E76FF0120019B0B3
:101B5000BDE8F08F6FF0010019B0BDE8F08F6FF0B5
:101B6000150062E70021B0E7107E0100307E010021
:101B7000D4770100EC7D0100CC770100E077010013
:101B800004770100F0B50027012687B0013915461A
:101B90001C46CDE904760B294BD8DFE801F01A2169
:101BA0003F334A4A4A4A4A354A060DF10B02224956
:101BB0000DF03EF801283CD100269DF80B30039330
:101BC0000DB1039B2B600CB1049B2360304607B022
:101BD000F0BD002211460DF01BFB00260390EFE73D
:101BE0000023009304AA05AB03A9FEF7FDFE061E21
:101BF000ECDB1249DDE9040391FBF3F1FEF7BAFED9
:101C00000490DDE70123ECE7002304AA009303A975
:101C100005ABFEF7E9FE061ED2DAD7E7002304AAD9
:101C2000009303A905ABFEF7DFFE061ECEDB0449D9
:101C3000E0E76FF01506C9E70C7E010040420F0097
:101C400000CA9A3B2DE9F047013A86B080460F461C
:101C500099460E9D0B2A00F29E80DFE802F00E15D9
:101C60002838809C9C9C9C4261062B785A4A0CF038
:101C700077FF012006B0BDE8F0872B68574A0CF0CB
:101C80006FFF06B0BDE8F087D5E90002002AABBFC0
:101C9000534B544B19465249CDE901210090394626
:101CA0004046514A0CF05CFF06B0BDE8F0876A6818
:101CB0004B4C2D684B4BCDE9005213EA220338BF41
:101CC00023464A4A0CF04CFF06B0BDE8F087454970
:101CD0006A68434B286833EA220328BF0B4644490D
:101CE000DAE72868434C6A6880FB0401FEF734FE9B
:101CF0006D6806AB224643F8045DFEF725FE059AA3
:101D000008B9002A60DB002AB8BF5242034600929D
:101D100039464046384A0CF023FF06B0BDE8F0874C
:101D2000D5E90024002A38DB324BC4F1200582FBC0
:101D30000323B4F1200622FA04F003FA05F540EA81
:101D400005005CBF43FA06F6304343FA04F1294A22
:101D500005ABFEF7F9FD059A0028D2D0D3E7B9F11B
:101D6000000F18DD0024DFF89CA02646043D01E0AA
:101D7000B1450CD0391B08EB040055F8043F52461E
:101D80000CF0EEFE0444A74206F10106F0D820460E
:101D900006B0BDE8F08700206CE7184BC4F12005C1
:101DA00082FB0323B4F1200622FA04F003FA05F5BE
:101DB00040EA05005CBF43FA06F6304343FA04F1FB
:101DC000404261EB4101C2E75342394640460C4A6A
:101DD0000CF0C6FE4EE700BF0C7E010054770100F8
:101DE000FC810100507701005877010068770100FD
:101DF0004C77010000CA9A3B7C770100003665C42D
:101E0000747701008877010080B1034610B5047C27
:101E100082B00A464069596801AB1CB1FEF74AFB23
:101E200002B010BDFEF73EFB02B010BD6FF0150012
:101E3000704700BF30B1037C40690BB1FEF760BB57
:101E4000FEF740BB6FF01500704700BF2DE9F04171
:101E5000D0E9144782B007B390460E46002503E050
:101E6000AF4204F1B00418D0314620460CF052FFC6
:101E700001350028F4D194F8A83073B1626D84F86C
:101E80006880936A73B1D4F8AC1001310AD104F1BF
:101E90004800984702B0BDE8F0816FF0150002B02D
:101EA000BDE8F081B8F1000F1DD0D369002BF6D04A
:101EB000D4F8AC300133F2D104F15805284601A919
:101EC000FFF7A2FF0028EADB636D606C626E019988
:101ED000B8F1000F0FD19B6998470028DFDB284637
:101EE000FFF7A8FFDBE79369002BD8D0D4F8AC301C
:101EF0000133D4D1E0E7DB699847EEE700680122BF
:101F0000FFF7A4BF00680022FFF7A0BFF0B5416D46
:101F100083B0054611B30026344637462B6D334453
:101F2000D3F8AC20B03602EB820C013213D0AA6D8C
:101F300003F1480002EB0C1292F84C205AB15B6D91
:101F4000DB6A43B19847AB6D04EB840203EB0213E9
:101F5000696D83F84C7001348C42DFD301A9E86EBF
:101F6000FEF7CAF9019B032B98BF6FF00A0415D93D
:101F700004226946E86EFEF7E7FA041E0EDB0099BC
:101F8000286800F0F5FC10F1800F044606D0009B95
:101F9000E86E01A904220193FEF7D2FA204603B0AD
:101FA000F0BD00BF2DE9F04F9BB0002800F0EB81A1
:101FB000002900F0E881059004910C460120702171
:101FC000FEF74AF90546002800F0E081D4E9032332
:101FD000D4F82080E669C5E91223C5F85C80B8F121
:101FE000000F40F05181C5F85880049AB0219369E0
:101FF000546918466B6503931E46FEF72DF9286554
:10200000002800F0C681002E5BD0A3464FF00008E8
:102010000446B02303FB0844DBF808302046636520
:102020004246A9490CF0E2FDDBF81470002F39D0CC
:10203000D5F85CA0BAF1000F34D00026D5F858903E
:1020400002E0013656452DD0484639460CF062FE76
:1020500009F150090028F4D1DBF8043004F15800EC
:10206000C4E91133DBF80830DBF800109A69C4F8D2
:10207000AC602164E064C2B1DBE90332C4F8A4209F
:102080004FF00102C4F8A03004F1780384F8A820CE
:10209000E366039B08F1010843450BF1180B10D0D0
:1020A0002C6DB6E74FF0FF36D6E7DA69002AE3D1A8
:1020B0009A6A002AE0D1DB6A002BDDD184F8A830CF
:1020C000E7E7382200210CA805F14C090CF00AFBC7
:1020D0004FF0FF3349460022A86CFEF713FF6B6DEB
:1020E00000F237449BB100264FF0FF3837462A6D87
:1020F00000233244116C506DCDF80080FEF7EAFFEA
:102100006B6D01379F4206F1B0060444EFD3EB6DCF
:10211000B3B100264FF0FF383746AA6D0023324492
:10212000906C116C4068CDF800800F900CA8FEF701
:10213000D1FFEB6D01379F4206F150060444ECD30A
:1021400001216018FEF788F82864002800F0248137
:1021500040F22E425D496C640CF04EFA2A6CA4F2F7
:102160002D43494602F22D42A86CFEF7CBFE6B6D63
:1021700000F22D47A3B100264FF0B0082A6D2B6C5A
:1021800008FB0622A4EB070C3B44116C506DCDF804
:1021900000C0FEF79FFF6B6D01369E420744EDD3F2
:1021A000EB6DBBB14FF00008AA6D08EB880302EBA2
:1021B0000312906C2B6C4668E01B116C3B44009042
:1021C0000CA80F96FEF786FFEB6D08F10108984505
:1021D0000744E9D33E4A2B6C03CA14889278D8513D
:1021E0001F44BA723B4A79603C813B483B4F3C4BB1
:1021F0006A613C4E3C4A6F62A862EB623B4F3C48CE
:102200003C4B2E632A613C4E049AEF61A8612B621D
:102210003A483B4B3B4F2C6CEE6012786E6CC5E934
:102220000170AB630CA92B1D2846CDE90D540F9608
:102230008DF840200C9300F02FFB041E14DB2C21A2
:1022400005F16C00FEF726F8041E0ADB049B1B78E0
:10225000002B7AD0012B59D06FF01504E86EFEF7F1
:102260003BF8286800F04EFB286CFDF7F7FFA86DDF
:10227000FDF7F4FF286DFDF7F1FF2846FDF7EEFFAF
:1022800020461BB0BDE8F08F50214046FDF7E4FF2B
:10229000A865002800F0838000241B4F00E0A86D93
:1022A000736804EB840200EB021043643268B36885
:1022B000394602648364224601340CF097FCA04541
:1022C00006F10C06EBD190E6A0790100B07901008F
:1022D000E07D01004D0C0000C1160000391900001E
:1022E000D50A0000890F0000C90C0000D90B0000BE
:1022F000051F0000FD1E0000610D000065090000C3
:10230000950A00006D090000947901000024049BE7
:1023100006AA9B68D3E90001C5E91901D3E90213B4
:1023200028680A9109A909940B9300F0EDFA041E9C
:1023300094DB069B1AA9E86E41F8483D0422FEF79B
:10234000FFF8059B00241D609AE74FF48050049B22
:1023500014495B68144A154CA9666A662B6606AA7E
:102360000B9009A9286809930A9400F0CDFA041E7D
:10237000FFF674AF069B1AA9E86E41F84C3D0422A3
:10238000FEF7DEF8DDE76FF0150479E76FF00B0478
:1023900076E76FF00B0470E76FF00B0467E76FF000
:1023A0000B0467E75D0D0000590D00001C140020B0
:1023B0006FF01500704700BF6FF01500704700BF49
:1023C0006FF01500704700BF6FF01500704700BF39
:1023D0006FF01500704700BF6FF01500704700BF29
:1023E000F0B5154641F6F022064684586868AA689A
:1023F00083B00094141A1F46019112D0FB074CBF02
:1024000041F6B82341F6BC232968F358014422461B
:1024100068469847002812DB6B68844203446B606F
:102420000FDCBA070AD541F6B8230122F358064952
:1024300068469847002802DB012802D1002003B03B
:10244000F0BD6FF00A00FAE7B8800100F0B513683C
:1024500083B0CDE9001315460746D2F87C3202F26C
:10246000F91619E0F41821463B680122684698479E
:1024700010F10B0F17D0002817D011DBD5F87C32E4
:1024800023B922780A2AEDD00D2AEBD00133C5F802
:102490007C3222780A2A0CD07E2BE3D96FF004001C
:1024A0000023C5F87C3203B0F0BD6FF00A0003B022
:1024B000F0BD00202B4483F8F9010023C5F87C32DD
:1024C000F1E700BF6FF01500704700BF2DE9F04F36
:1024D000894683B0A94992460CF0F2FD002849D004
:1024E000A74C0646A74904F134070925DFF8A48262
:1024F00005E0BC423ED054F8045F58F83510304631
:102500000CF008FC83460028F3D19C4989F8005060
:1025100052460CF0D5FD99F800300146032B24D922
:10252000042B2CD10A2201A90CF040FFC9F80800A5
:10253000D8B9019B1B78002B0CBF00206FF0150051
:1025400003B0BDE8F08FA8B18F490CF0E3FB88B968
:1025500052468A490CF0B4FD60B10A2201A90CF080
:1025600025FFC9F814000028E3D0002003B0BDE81F
:10257000F08F5CBB6FF0150003B0BDE8F08F3F2219
:1025800009F119000CF030FD89F858B05846524650
:102590007A490CF095FD99F8005004466B1F082B02
:1025A000E8D801A252F823F0852600006B25000030
:1025B000F9250000F9250000E5250000E5250000CB
:1025C0006B250000F326000047250000237809F161
:1025D0009900303B092B00F2B0804FF4807200214B
:1025E0000CF080F820460A2201A90CF0DFFEC9F8A1
:1025F00010000028B9D19CE7042389F8D9310028BC
:1026000000F08880614920460CF084FB0026DFF84A
:102610008881074650B10136042E75D058F826102F
:1026200020460CF077FB07460028F4D15246534968
:102630000CF046FDF6B2B31E012B044689F8D961B1
:102640000FD8002896D001463F2209F159000CF01E
:10265000CBFC89F898703846524648490CF030FD5A
:10266000044699F80030082B83D009F199031846E5
:10267000002C54D02146FF220CF0B6FC002089F833
:10268000980173E700283FF475AF01A90A220CF006
:102690008DFEC9F80C0020B9019B1B78002B7FF43C
:1026A00069AF5246354900200CF00AFD00283FF47E
:1026B00061AF01A910220CF079FEC9F8040020B91D
:1026C000019B1B78002B7FF455AF0020524689F800
:1026D00018002A490CF0F4FC00283FF446AF2C49BE
:1026E0000CF018FB00287FF445AF012389F818305F
:1026F0003CE709F29910D4B121463F220CF074FC5A
:10270000002089F8D80131E7082D3FF45FAF09F1C7
:102710009900AFE7082D3FF42DAF09F19903184652
:102720004FF4807200210BF0DDFF00201EE74022F5
:1027300021460BF0D7FF204618E74FF0000B21464B
:10274000FF220CF051FC524689F898B158460B49CB
:102750000CF0B6FC00283FF40DAF0A2201A90CF0E2
:1027600025FEC9F8100000287FF4FFAE019B1B78FE
:102770005B450CBF58466FF01500F7E600000020DF
:10278000B87F0100907F0100A87F0100987F0100C1
:10279000A07F01000C7F0100FC7E01004B68002B34
:1027A00065D02DE9F04F0A6883B00192002A61D00C
:1027B000D1E90478D1E90CEC0A6AD1F808A02F4CD1
:1027C000D1F80C908D69DFF8B8B00092BAF1000F23
:1027D00008BFA246D1E90A644A6AC969B9F1000F83
:1027E00008BFD946B8F1000F08BFD846002908BF76
:1027F0005946DFF890B04360BEF1000F08BFDE46D7
:10280000019BDFF884B00360BCF1000F08BFDC4619
:10281000009BDFF878B0C0F808A0002D08BF5D4627
:10282000002C08BF5C469B46DFF864A0C0F80C9003
:10283000002F08BF5746002E08BF5646DFF854A0A9
:10284000C0F81480002B08BFD346002A08BF5246A8
:10285000C161C0E90CEC076186628561C462C0E9B0
:1028600008B20020CDF800B003B0BDE8F08F6FF0E3
:10287000150070476FF01500F6E700BFB1230000A8
:10288000B9230000D1230000D9230000C524000093
:10289000C9230000C1230000F8B560B359B30F6825
:1028A0004FB306460C4601204FF4D8510BF08AFB7B
:1028B000054618B300F5D55039461830FFF76EFFBE
:1028C000071E13DB41F6F42041F6F822A76841F613
:1028D000F02141F6FC232F500027E068A8506068E3
:1028E000227C68503560EA543846F8BD28460BF023
:1028F000E9FB3846F8BD6FF01507F5E76FF00B07F9
:10290000F2E700BF0BF0DEBB78B372B32DE9F843FA
:10291000034600241D7903F52B7335B101340A2CCD
:10292000F8D16FF00F00BDE8F88390464FF42B729A
:1029300002FB04F900EB09030F4606462946184638
:102940000BF0D0FED7E900C103464FF0010EBA6884
:10295000284683F804E046F809C0C3F88012C3F89B
:102960008422C8F80040BDE8F8836FF01500704776
:102970002DE9F04F93B0002800F064830A2900F29B
:1029800061834FF42B7707FB01F7C6193379002BCE
:1029900000F05883054607F2F91E07F1080C05EB15
:1029A0000E0307F52974059305EB0C0307F5F67084
:1029B00003932B190491069307F526712B1807F240
:1029C000A11A07936B180893534607F1210841F6A3
:1029D000F022A84407F5227B029734464746EB18BD
:1029E0000993AA5896F8F83105EB0B093168CDE93F
:1029F0000B21062B00F21D81DFE813F007004000D9
:102A0000C10070002F001B01FC0005F5D5501146D8
:102A10001C303246FFF71AFD0028C0F23381069AB7
:102A200003990598FFF752FD0028C0F22F82237A00
:102A3000082B1AD10021042241F6F023C4F88C128D
:102A400084F8F821D4F88012A269C4F88812C4F876
:102A50009022EB583168CDE90B3104234A462846D1
:102A6000FFF7BEFC0028C0F20D81012241F6F023E1
:102A700084F8F821EA583168CDE90B2196F8E13164
:102A8000307A8DF83C3006F1A103109306F1610312
:102A9000CDE90D2111930D2800F2CB80DFE810F075
:102AA0006D0186015A0095016D016D016D019C015A
:102AB000BD01DC01EF019C016D016D0100230321CB
:102AC00041F6F022C9F80030C9F80430C9F80830DE
:102AD00084F8F811AA583168CDE90B21237A092B23
:102AE00000F0EA80D4F89032CDE90F21002B00F0FD
:102AF000CF80D4F88C22934200F2A78241F6D022F4
:102B0000394655F802800FA8D4F88822C04700281B
:102B1000C0F2B8800021A269D4F89032C4F89012B3
:102B2000A2EB0308C4F81880B8F1000F40F0088148
:102B3000012241F6D42384F8E821EB5839460BA84A
:102B40009847002880F2FF80029FC4F8E4014FF00C
:102B5000000A71E041F6F823012041F6F421EB5818
:102B600084F8E801C4F8E4316958C4F8F431C4F8D1
:102B7000EC11022384F8F8313368CDE90B2394F883
:102B8000E8318BB1D4F89082B8F1000F00F0928157
:102B9000D4F88C32984507D903234A463168284631
:102BA000FFF71EFC00286DDBD4F8EC316BB1D4F8D4
:102BB000F021D4F8F4319A4207D20323079A3168FE
:102BC0002846FFF70DFC00285CDB237AA3F10902FD
:102BD000012A7FF673AF94F8A822002A6AD0052B49
:102BE00068D0062241F6F02384F8F821EA583368C9
:102BF000CDE90B2341F6D4230BA8EB58394698476F
:102C0000002880F2678141F6C423C4F8E401EB5840
:102C10000BA8394698470522002384F8F82184F848
:102C2000A83294F8F831052B44D041F6F022AA5886
:102C3000DCE66FF0150A029F4FF4EE720021039854
:102C40000BF050FD4FF42B710023049A07F5F27737
:102C500001FB0251EA19EB5153609360D360136199
:102C600045F80B30C9F80430C9F80830C1F8EC3128
:102C7000C1F8F031C1F87C3281F8F831504613B018
:102C8000BDE8F08F8246029F1AF10B0FD4D1F5E711
:102C9000A269D4F88402C4F88C32824228BF02466A
:102CA000D4F88002C4F89022C4F888021A46D4F8F6
:102CB000903220E7029F4AE741F6FC23EB5CB846DE
:102CC000022B029F00F02781D4F89062CDE90F21FA
:102CD000002E40F0C58141F6C82CA069D4F884329A
:102CE000D4F880228342C4F8882228BF0346414694
:102CF0000FA855F80C80C047B0F1000AC4DB53465A
:102D0000C4F890A2C4F88C62B3427FF620AF0123CE
:102D10004A46E9592846FFF763FBB0F1000AB3DBE6
:102D20004FF42B730020049A03FB0253D3F8901244
:102D30009A69C3F89002521A9A61002A3FF407AFC9
:102D40006FF00A0A9AE7022341F6F0220799C1F8C8
:102D50000080C1F80480C1F80880A1692372C4F81A
:102D6000E41184F8F8313368AA58CDE90B2394F8BC
:102D7000E831002B7FF406AF16E7052800F07E81CE
:102D8000062804BF002384F8A832237A043B092BC9
:102D900000F20C81DFE813F012013A012F010A0161
:102DA0000A010A010A010A011D014A014FF42B73AD
:102DB000002101220498029F03FB00536FF07F0A59
:102DC000C3F8E41183F8E82136E70B21B34BC4F8CC
:102DD000F411C4F8EC31CCE60728D4F8843206F1BB
:102DE0002101D4F8802200F03F8105F5D750D0F8BA
:102DF00000800DA8C04701230028C4F8E40184F82E
:102E0000E831C0F2478141F6F023D4F88022C4F8BB
:102E1000F401C4F8EC21EA58ABE64FF0000841F6A3
:102E2000DC21D4F88002B3690FAA00F80380B069EE
:102E3000D4F88032009055F801A00DA806F12101C8
:102E4000D047012241F6F023C4F8E401C4F890828F
:102E500084F8E821EA588CE6012241F6CC2384F874
:102E6000E821EB5806F121010DA89847002880F2CF
:102E7000888041F6F023C4F8E401EA5879E601219C
:102E8000B36984F8E811C4F8E43172E60222012142
:102E900041F6F02384F8E811C4F8E40184F8F8213D
:102EA000EA583368CDE90B2394F8E831002B7FF41E
:102EB00069AE79E6059BD4F8E421C4F88832184657
:102EC00077490BF093FEC4F88C824346C4F8900215
:102ED00080465FE641F6F02305F5D550E9581C30F1
:102EE0003246FFF7B3FA0028FFF69BAE069A039925
:102EF0000598FFF7EBFA0028FFF693AE237A062B2E
:102F00007FF48FAE00230122C4F8903284F8A832F7
:102F100084F8F82185E6D4F88002D4F89032C4F819
:102F20008802CDE90F21C218A06941F6C82684465F
:102F3000D4F884024146844594BFC3EB0C03C3EB31
:102F40000003AE590FA8B047B0F1000AFFF69CAEDF
:102F5000D4F89032A26953449342C4F89032FFF4FB
:102F6000EFAE01234A46E9592846FFF739FAB0F196
:102F7000000AFFF689AE0023C4F89032C4F88C3200
:102F8000E5E5B269DDF82080D4F89432C4F8E42194
:102F90000A21444A40460BF0E3FD082241F6F023A3
:102FA000C4F8EC81C4F8F421EA58E2E56FF01500AA
:102FB0000123C4F8E40184F8E831DAE505F5D553D6
:102FC00018331B6B21690DA8984741F6F023EA5886
:102FD000EEE7DDF824A050460BF0D8FF05F5D552FA
:102FE0000346D2F84480394652460DA8C04741F600
:102FF000F023EA58DCE705F5D5531833DB6839468A
:103000000DA8984741F6F023EA58D1E794F820003C
:10301000E368626905F5D5510090D1F820800DA8CC
:103020003946C04741F6F023EA58C1E705F5D553C4
:1030300018335B6BE26939460DA8984741F6F023D7
:10304000EA58B5E76FF0150A18E604234A46284601
:10305000FFF7C6F90028FFF615AED4F890324DE51B
:103060003346D4F88C624FE641F6D820009355F8E9
:10307000008013460DA80FAAC047BCE6F368C4F849
:10308000943296F82030002B3FF47FAE012384F871
:10309000A8327AE641F6F023EA586AE57C7F01001F
:1030A00054770100887F010070B5044610460D4634
:1030B0001A46014620681E4604F094FE002817DBDD
:1030C0004FF4FA5000FB06F30A480B4AA0FB03102A
:1030D000A2FB0323000D00EB134001F0E5FC206888
:1030E00004F042FE29462046BDE8704004F016BEBA
:1030F00070BD00BFD55204E9C5B3A2912DE9F047D8
:10310000ADF50E7D0DF1100E76460DF1240C6546E1
:103110008846174C814604F114070FCC0FC60FCF19
:103120000FC522683B683260124F134A98F81100AD
:10313000CDE902722B6098F812405CF8200098F8F4
:1031400010A002A951F824405EF82A30D8F80C20CB
:103150000A4900900EA801940BF048FD0EAA034600
:1031600041464846FFF7A0FF0DF50E7DBDE8F0870C
:10317000708001000082010004820100BC80010017
:1031800030B5ADF5017D04460D46684605490BF0A6
:103190002DFD6A46034629462046FFF785FF0DF5BB
:1031A000017D30BD9880010030B500234FF4E1353A
:1031B00003220C7889B0019304958DF804404D6882
:1031C0000C7A49690393069101A9059302958DF83C
:1031D0000C4007938DF8142004F0A0FD09B030BD19
:1031E00084B0F0B58DB013AC054684E80E00012024
:1031F0001421FDF731F8002800F0A380DDE9212338
:103200000446209E16980296C4E9032368B1159BD4
:103210009A6811680A4629B13CE0196A18330968AE
:10322000002937D101329042F7D186B9464B03A924
:1032300002A803960596049304F074FE061E23DB91
:10324000029804F0B3FE061E1EDB029900E0314630
:10325000616001A819A9FFF7A7FF061E19A901A817
:103260001ADBFFF74BFF061E1ADA00273846FCF779
:10327000F5FF2046FCF7F2FF324619A901A8FFF737
:103280007FFF019804F070FD30460DB0BDE8F040BE
:1032900004B070470291DBE7FFF786FF0027E5E700
:1032A0000022019B18212360169804938DF80C20AE
:1032B000FCF7D2FF0746002840D0DDF858C0BCF12B
:1032C000000F24D00CEB4C060346159A00EBC60603
:1032D00008E048680968D86019611833B34202F100
:1032E000180214D0116819605168596091685069CA
:1032F0009960D16858610029EBD111690029E8D1A2
:10330000C3E903111833B34202F11802EAD1DDE92F
:103310001731139A0A93149B0B9104F1080003A927
:10332000CDE9087C06920793FEF73CFE061E9DDB66
:103330003846FCF793FF00262C60A5E76FF00B06DC
:1033400094E76FF00B069FE7D482010038B504467E
:103350006FF4FA65A068FEF7D9FD38B110F10B0FD4
:1033600004D010F1800F01D0A84206D1E368002BF1
:10337000F0D0206998470028ECD038BD20B1002259
:10338000836998889A8070474FF0FF30704700BF7C
:1033900038B50446054DC0682978FDF70BF9294674
:1033A0002046BDE83840012204F03CBD1C2400202A
:1033B00038B584690546D4E90203C01AFCF74EFF0C
:1033C0000023A869C4E90233FCF748FF2846BDE89A
:1033D0003840FCF743BF00BF00B370B5856905B343
:1033E0000026114A0179C368044642F821606BB196
:1033F0008168A86A04F0F2FDE068FDF7EDF8E66088
:1034000005F12C02A168A86A04F0C4FD286804F044
:1034100051F82046FFF7CCFF002070BD4FF0FF3081
:1034200070474FF0FF3070BD20240020F8B170B518
:103430000C46C9B1C2B185692E7CAEB9B2F5806FB8
:10344000134628BF4FF4806201201444042B6C61A2
:10345000A3EB02042874AC6194BF00230123286805
:1034600004F02EF9304670BD4FF0FF3070BD4FF0C4
:10347000FF307047F8B170B50C46C9B1C2B185696B
:103480002E7FAEB9B2F5806F134628BF4FF480622D
:1034900001201444042B2C62A3EB020428776C62F5
:1034A00094BF00230123286804F024F9304670BD3E
:1034B0004FF0FF3070BD4FF0FF307047002832D022
:1034C0002DE9F043884685B051B3144642B387696D
:1034D0003D7C002DFDD10DF10C09B4F5806F264621
:1034E00028BF4FF48066042C386808EB050132468B
:1034F000CDF8009094BF0023012304F015F9354462
:1035000028B9A41BE9D1284605B0BDE8F0834FF0E7
:10351000FF30BA88039B1343BB8005B0BDE8F0833E
:103520004FF0FF30F0E74FF0FF307047002853D0E6
:103530002DE9F0430F4685B0002950D015460646C8
:10354000D0F81880002A45D0C068B0B1002403E04C
:103550000134A5420DD0F0683919FDF719F800289B
:10356000F6D0002C14BF20466FF00A0005B0BDE86D
:10357000F083284605B0BDE8F08398F81C40002C85
:10358000FDD10DF10C09B5F5806F2E4628BF4FF423
:103590008066042DD8F8000007EB04013246CDF810
:1035A000009094BF0023012304F0DAF8344428B9D2
:1035B000AD1BE8D1204605B0BDE8F083BDF80C3066
:1035C0004FF0FF30B8F804201343A8F8043005B0DA
:1035D000BDE8F0830123F3E74FF0FF3070474FF071
:1035E000FF30C3E72DE9F04F87B000287AD00029DB
:1035F00078D00B78002B75D17C4A1568002D71D1DD
:103600000B7C032B06D84B7C032B63D0042B07D0F9
:10361000002B62D06FF01508404607B0BDE8F08F70
:103620004FF018094FF0010B07460C4658461C2175
:10363000C2F800B0FCF710FE0646002852D03C212C
:103640005846FCF709FE8246002848D0B061B321F5
:103650005846FCF701FECAF8080000286AD0C31CCF
:1036600023F00303181AE268CAE9023032612078B5
:10367000D6F818A03071DAF80820B023CDF800A0F1
:10368000022103F059FFE0B9A27C4946920002F002
:10369000FC02237CDAF8000004F084F888B9DFF833
:1036A00060914FF416534A46E16801E052F80C3F2E
:1036B00099421DD001350A2DF8D102A9002002F04F
:1036C0004FFA3046FFF774FE002340463B6007B0D8
:1036D000BDE8F08F4FF00809A4E7A946A2E73046FD
:1036E000FCF7BCFD4FF0FF38404607B0BDE8F08F57
:1036F00002A9002002F034FA3D4B029A9A42E0D12E
:1037000005EB450509EB850999F80A50DAF8000040
:10371000B9F80430009599F80620B9F8081004F0BB
:103720004FF805460028CCD1237A63B93E604FF0AC
:10373000000871E75046FCF791FD3046FCF78EFD1E
:103740004FF0FF3868E706F10C00FCF701FFB0F11D
:103750000008B6DB5046274B50F8282B03A90395E9
:103760000592049304F0DEFBB0F1000803DAF06880
:10377000FCF732FFA5E7022201251F4B0AF12C04BA
:103780008AF83420CAF83060CAF838A08AF8355070
:10379000CAF82C302246B168DAF8280004F0EEFBB3
:1037A000B0F1000804DADAF8280004F0D5FBDEE70F
:1037B000B168DAF8280004F005FCB0F1000806DA78
:1037C0002246B168DAF8280004F0E4FBEBE72A4669
:1037D0000A493046FFF74EFEB0F10008A6DAB1689C
:1037E000DAF8280004F0FAFBEAE700BF2024002002
:1037F00080BA8C01D4820100913300001C24002087
:103800005C82010000680B68C01A7047402909D823
:10381000520101F16041D2B201F5614181F800230A
:10382000002070476FF01500704700BFE0B1C3681B
:1038300010B50446ABB10022114604F0ABFB0022E8
:103840000121204604F0A6FB00220221204604F0BC
:10385000A1FBE068FCF702FD2046FCF7FFFC00201E
:1038600010BD4FF0FF3010BD4FF0FF30704700BF6C
:1038700000B5074B83B0586B01A9FCF7D9FE019B3B
:1038800013B1D3E90220904703B05DF804FB00BFF9
:10389000040000202DE9F04182B0002800F0AF8044
:1038A000C368002B00F0AB80022900F2A880002A38
:1038B00000F0A8801446107A554D00EB40008300BC
:1038C000EA1801295068E76841D0022929D00DF192
:1038D000040841460326FCF70BFF60B1013E6ED0A1
:1038E000237A414603EB430305EB83035868FCF757
:1038F000FFFE0028F2D1207A00EB40008300EA1896
:10390000506890B9181D2844424A0321FCF714FF5F
:103910000646C0B9237A03EB430305EB83035868DB
:1039200003E0002851D00DF104084146FCF780FE69
:1039300038BBD4E900130646019A277AE568C2E944
:103940000213C2E90075304602B0BDE8F0810028DC
:10395000E9D1181D28442F4A0321FF68FCF7ECFE2B
:1039600006460028EFD13868E2682B4902F0DEFAFB
:10397000237A0DF1040803EB430305EB8303586836
:10398000D3E714210120FCF767FC014601900028D1
:103990003BD0227AE66802EB420305EB8305D4E9CB
:1039A000007302606868C1E90167CB60FCF74EFEF6
:1039B00006460028C7D00198FCF750FCC3E73868DA
:1039C000E268164903F0E8FE95E7181D2844114AFD
:1039D0000321D7F81480FCF7AFFE06460028B2D1C9
:1039E0000346E2680E49387903F02EFB08F10A0815
:1039F0004146387903F07AFB0628F9D0B8E74FF052
:103A0000FF36A0E76FF015069DE76FF00B069AE70B
:103A1000040000200538000071380000253A00003D
:103A2000293C000030B5044683B001B3012911D010
:103A3000002380882B49024323772374886AA2805D
:103A400001A9FCF7F5FD019B13B1D3E902209047D2
:103A500003B030BD8369002B2CD1224A037401A925
:103A60001069FCF7E5FD019B002BEED1F0E7436AFE
:103A70004BB91C4A037701A9D069FCF7D9FD019B1A
:103A8000002BE2D1E4E7B3F5806F1D4628BF4FF469
:103A90008065042BA3EB0502426294BF002301233F
:103AA000016A2A46006803F025FE236A2B4423623C
:103AB00003B030BDB3F5806F1D4628BF4FF480655D
:103AC000042BA3EB0502826194BF0023012341690B
:103AD0002A46006803F0F4FD63692B44636103B078
:103AE00030BD00BF04000020002845D0C368002B73
:103AF00042D0022940D8F0B5137A214D03EB43039D
:103B000083B005EB8303586801A91446D668FCF717
:103B1000EFFD08B103B0F0BD237A03EB430305EBDF
:103B200083035868FCF75EFE0028F3D10246237A2F
:103B300001A903EB430305EB8303586010460327F9
:103B4000FCF7D6FD0028E5D0013F0DD0237A01A96E
:103B500003EB430305EB83035A681046FCF7C8FDEB
:103B60000028D7D0013FF1D130683A46394603F0FA
:103B700013FE384603B0F0BD4FF0FF30704700BF72
:103B80000400002098B1C26810B5044662B100215B
:103B900004F018FA0121204604F014FA204602210C
:103BA00004F010FA002010BD4FF0FF3010BD4FF0B0
:103BB000FF30704798B1C26810B5044662B1002169
:103BC00004F00CFA0121204604F008FA20460221F4
:103BD00004F004FA002010BD4FF0FF3010BD4FF08C
:103BE000FF307047E8B1E1B170B504460D460120E1
:103BF0001021FCF731FB206080B100210120FCF78F
:103C00002BFB064630B123682A68DE60236800205B
:103C10001A6070BD2068FCF721FB26604FF0FF3072
:103C200070BD4FF0FF307047012900D0704700B5DC
:103C3000064B83B0D86C01A9FCF7FAFC019B13B1C9
:103C4000D3E90220904703B05DF804FB0400002094
:103C500030B583B050B3C36843B3022926D80129D5
:103C600011D0022907D04FF48042124B1A60002570
:103C7000284603B030BD4FF480520E4B1A60002529
:103C8000284603B030BD0C4B0C46586B01A9FCF71D
:103C9000CFFC05460028EBD1019B22465B684FF420
:103CA0000071DB68186802F0C1F8E1E74FF0FF35FA
:103CB000DEE700BF00E100E00400002010B582B0A4
:103CC00040B3C36833B3022924D8012911D0022993
:103CD0000CD04FF48042114BC3F88020BFF34F8FBC
:103CE000BFF36F8F0024204602B010BD4FF4805206
:103CF000F1E70B4B01A9586BFCF79AFC044600282E
:103D0000F1D1019B02465B684021DB68186802F034
:103D10008DF8E8E74FF0FF34E5E700BF00E100E091
:103D20000400002090B110B50A4C23785BB1FCF779
:103D300095FA2378013BDBB223700BB1002010BD54
:103D400001F062FB10BD4FF0FF3010BD4FF0FF30AF
:103D5000704700BF34240020024609B104F04AB97C
:103D600011600846704700BFB0B108B50C4B1B7816
:103D70007BB1012140680A4600F00F03994089B2E7
:103D8000C0F3031001F072FB003018BF0120404265
:103D900008BD4FF0FF3008BD4FF0FF30704700BF47
:103DA0003424002048B3164B1B7833B370B501247C
:103DB000054640680E4600F00F0104FA01F1224664
:103DC000C0F3031089B201F039FB98B96868012E7D
:103DD00000F00F0104FA01F4A1B2C0F3031006D001
:103DE00001F086FB003018BF0120404270BD01F099
:103DF00077FBF7E74FF0FF3070BD4FF0FF307047B3
:103E00003424002070B3194B1B785BB370B50126C6
:103E10000C460546406800F00F0306FA03F3C0F3B2
:103E2000031099B2C4B1022C06D001F059FB003046
:103E300018BF0120404270BD002201F0FFFA024687
:103E400068B9686800F00F0106FA01F189B2C0F3A1
:103E5000031001F00BFBEAE701F04AFBE7E74FF044
:103E6000FF3070BD4FF0FF30704700BF342400209A
:103E7000F8B1114B1B78E3B130B50446406883B00C
:103E80000D46C0F303100DF1060101F007FB68B900
:103E90006268BDF8063002F00F02D34013F0010350
:103EA00014BF012318462B7003B030BD4FF0FF3014
:103EB000FAE74FF0FF3070473424002000283CD050
:103EC0001F4B1B78002B38D030B50446406883B0B8
:103ED0000D46C0F303100DF1060101F0DFFA48BBF7
:103EE0006068BDF8063000F00F01CB40DB07C0F37F
:103EF00003100FD4012303FA01F189B201AA01F0E2
:103F0000FFFAB8B9BDF80430003318BF01232B7095
:103F100003B030BD0DF1060101F0FCFA50B9626842
:103F2000BDF8063002F00F02D34003F001032B70FE
:103F300003B030BD4FF0FF30EAE74FF0FF3070477D
:103F40003424002098B391B370B505460C46012087
:103F50001421FCF781F9286030B3164E6368347879
:103F600043601CB101340020347070BD01F04CFA84
:103F70001021114801F032FA90B94FF400720F4B42
:103F8000C3F88020BFF34F8FBFF36F8F4FF4806271
:103F9000C3F88020BFF34F8FBFF36F8F3478E1E712
:103FA0002868FCF75BF92C604FF0FF3070BD4FF0D4
:103FB000FF307047342400202424002000E100E07A
:103FC000F8B50F4B05461C684669013C1C605CB1A6
:103FD000306808B1FCF742F93046FCF73FF9284653
:103FE000FCF73CF90020F8BD064F386801F0F8FBFB
:103FF000FF21054A054B3C6011701C60E8E700BFDB
:104000007024002068240020580000206C24002028
:1040100000283DD000293BD02DE9F84304460D4649
:1040200001201821FCF718F9206000283AD01F4E13
:10403000376877B9DFF87C80302243461C49384620
:1040400001F098FB814630BB0122302101F030FAAB
:1040500080B908210120FCF7FFF8226869683368FD
:104060009160297A01331173226833605061002016
:10407000BDE8F8832068FCF7F1F8C4F80090D8F8A0
:10408000000001F0ADFBC8F800906FF00D00EFE705
:104090006FF0150070472068FCF7E0F827606FF0BC
:1040A0000D00E5E76FF00B00E2E700BF7024002091
:1040B000382400206824002070B5114C0368226861
:1040C0000E4693420ED10F4C317823788B4207D0A5
:1040D0000D4B186801F0E6FB70B93378237070BDA2
:1040E000002070BD084A05461946106801F0AAFB79
:1040F00010B92B682360E6E76FF0150070BD00BFB4
:104100006C24002058000020682400200346F0B5ED
:10411000083087B00F4603F10C0116465C69FFF7C3
:10412000CBFF051E1BDB2379E3B98DF81730029313
:10413000ADF80C3001230F4901AA086802A98DF8D7
:1041400016300497ADF8146001F054FB237905464E
:104150002BB12068FCF782F80023236023712846E6
:1041600007B0F0BD012122688DF817100292ADF85A
:104170000C30DFE7682400202DE9F041044686B0CA
:104180000F46083004F10C01154698466669FFF7A2
:1041900093FF002812DB237B9BB1B8F1000F1CD1E9
:1041A0003068357168B329460AF006FB002831D023
:1041B00030602A4639460AF01FFA002006B0BDE8F2
:1041C000F081174B2A461868394601AB01F076FB9F
:1041D0000028F2D06FF00400F0E70023104901AA94
:1041E000086802A90497ADF814508DF817300293AF
:1041F000ADF80C308DF8163001F0FCFA0028DCD058
:10420000E8E72846FCF726F830600028D1D14FF0C7
:10421000FF30D3E73068FCF721F84FF0FF30CDE7EF
:1042200068240020002800F0A180002900F09E8072
:104230002DE9F0478C69002C00F08E800B68022B72
:1042400000F28A800B7A032B00F2868007460D4627
:1042500001202421FCF700F8064600287CD0082124
:104260000120FBF7F9FF8046002879D00122206861
:10427000DFF80091C8F80000C6F81C802B7A02FA1B
:1042800003F33373D5E90030697A59F82340C6E95E
:104290000130717344B10020236B01332363C8F8EC
:1042A00004403E60BDE8F08710463C21FBF7D4FF98
:1042B000044600284AD000F12C0301462C2228682D
:1042C00002F078F800283ED1B168E06AD6F81CA068
:1042D00002F0FAF8002836D104F13401E06A02F065
:1042E00015F980BB636B317BB360E06A02F036F98D
:1042F000337BE06A84F83830717B01F0010102F011
:1043000031F9717BE06AC1F3400102F017F99AF8C4
:104310000010737B003118BF012184F83930E06A46
:1043200002F0B0F89AF800309AF80110E06A84F8C8
:104330003A3002F097F82B689AF8012049F82340A8
:1043400084F83B20A7E72046FBF788FF3046FBF7C1
:1043500085FF4046FBF782FF4FF0FF30BDE8F08756
:104360003046FBF77BFF4FF0FF309BE74FF0FF300D
:10437000704700BF7424002000B370B5C569D5B183
:104380006B68C3B11A6B0446012A07D02846FBF7B5
:1043900065FF2046FBF762FF002070BDD86A02F07F
:1043A00043F8064638B96868FBF758FF054B626862
:1043B00043F82260EAE74FF0FF3070BD4FF0FF3066
:1043C000704700BF74240020002800F083802DE98E
:1043D000F041C76984B07D688046002D71D00E46DB
:1043E0006B6B81681446994204D0E86A02F06CF85D
:1043F000002866D198F80C1095F838308B4206D01A
:10440000E86A02F0ABF898F80C3085F8383098F884
:104410000D1095F839308B420FD001F00101E86A98
:1044200002F0A0F898F80D10E86AC1F3400102F01C
:1044300085F898F80D3085F83930397895F83A30A4
:104440008B4208D0003118BF0121E86A02F01AF847
:104450003B7885F83A30797895F83B308B4205D037
:10446000E86A01F0FFFF7B7885F83B304CB340F2FF
:104470000113ADF80C30FB78BA788DF80E308DF85A
:104480000F2007E002F07CFBD8B9641BA4B22E44D5
:10449000E4B1FB78254623B1B4F5006F38BF4FF483
:1044A00000653B787A68012BADF808500096ADF8AE
:1044B0000A500196D06A6946E4D102F003FA002856
:1044C000E3D04FF0FF3004B0BDE8F081204604B0E7
:1044D000BDE8F0814FF0FF30704700BF06494DF84E
:1044E00004BDD1E900BC1BF101024CF10003C1E99C
:1044F00000235DF804BB70478024002020B119B16F
:10450000836800200B6070474FF0FF30704700BF9A
:1045100028B143691B7A13B98160184670474FF080
:10452000FF3070476FF05700704700BF002800F061
:10453000A880002900F0A580534B4A689A4200F2F7
:10454000A0802DE9F043074685B00C4601201821D4
:10455000FBF782FE0546002800F087801821012025
:10456000FBF77AFE064600287BD0D4E90121238898
:10457000D4F81080E9606861AA603BBB434EAB8011
:10458000346834B10134346000203D6005B0BDE8CA
:10459000F083012322463E49204602F055FD0123C7
:1045A0003C4A8DF804408DF806408DF805308DF8B2
:1045B00007308DF80C308DF80D30029201A9287962
:1045C00002F094FD0628F9D03468DBE700234FF0B1
:1045D00001091A461946A5F80490484602F034FD30
:1045E000002098F800308DF8059003F00302990838
:1045F000032B8DF806208DF807108DF804002AD9BA
:10460000072B27D94FF4FA430093032A30D8DFE869
:1046100002F01A021F1C10220121009B2089B3FB0B
:10462000F2F28DF80C108DF80D10ADF80800ADF811
:104630000A0001AB03CB1C88C6F80A00C6F80E10AE
:104640007482AA60A0E70122E6E74FF48072E3E7F4
:104650004022E1E74846694601F082FA9DF80620CB
:10466000D3E72846FBF7FAFD3E604FF0FF308DE7B9
:104670003046FBF7F3FD2846FBF7F0FD6FF0150021
:1046800084E74FF0FF30704740420F008C24002039
:10469000DD44000090659065002879D0002977D02E
:1046A0002DE9F043D0F8148083B098F8083013B3A4
:1046B0000D468168384BB1F57A7F0446D3E900672F
:1046C0001FD8D8E90023B61A67EB0307B946A6FB43
:1046D000016701FB09774FF47A72002330463946AF
:1046E00009F0EEFA024628600020E36813442B60CC
:1046F00003B0BDE8F083C26818460A6003B0BDE8A5
:10470000F0830DF10601007902F048FDD8E90001BF
:104710004FEA471C7201921B4CEAD66363EB070316
:104720004FEA830C4FEA820E4CEA927C1EEB0602A3
:104730004CEB0703DF00D60047EA527732463B4690
:104740000027BDF80660DFF858C0C6F5CB46103626
:10475000ACFB06C6F608B6B212EB060843EB070937
:10476000894508BF804503D218F57A7849F10009D8
:10477000A668B8EB000269EB0103A6FB0201074A39
:1047800006FB0311002309F09BFA02462860ABE701
:104790004FF0FF30704700BF8024002040420F00E0
:1047A0004FECC44E68B370B5456982B02B7A0446AD
:1047B00023B383880BB90AE0A388D8B2002102F0A2
:1047C000C9FC0628F8D00020287202B070BD0E4E39
:1047D00001A903F08DFB3368019A012BE26005D03B
:1047E0000020013B3360287202B070BD00210846F2
:1047F00002F0B0FC0628F9D03368F1E74FF0FF3043
:10480000E3E74FF0FF3070478824002030B338B51D
:1048100004464069FBF722FD2046FBF71FFDA088F8
:10482000A0B9104A1368013B1360ABB900210846D8
:1048300002F090FC0628F9D00024002500200A4A46
:104840000A4BC2E90045186038BDA088C0B20021FB
:1048500002F080FC0628F8D0002038BD4FF0FF3071
:10486000704700BF8C240020802400208824002072
:10487000002866D02DE9704B456983B02B7A002B58
:104880005CD104468088F8B92F4E336833B90121D2
:10489000002002F05FFC0628F9D0A0880022A3685F
:1048A000ADF80620B3F57A7F1AD8284BD3E9002358
:1048B00001203168287201440020C5E900233160DD
:1048C00003B0BDE8708BA088C0B2012102F042FCA9
:1048D0000628F8D0012300202B7203B0BDE8708BAE
:1048E0000DF10601C0B202F059FC184BBDF80610DC
:1048F000D3E900894FEA49104FEA4812B2EB0802A7
:1049000040EAD86363EB09039400980014EB0803B2
:104910009846434640EA927040EB0904E00040EAC2
:1049200058708146C1F5CB4109481031DC00A0FB2D
:104930000131C908621849F10003B9E74FF0FF30AF
:10494000CBE74FF0FF307047882400208024002000
:104950004FECC44E002848D02DE9F04B466982B098
:10496000002E3FD0002283680446B3F57A7F0D46BF
:10497000ADF80620808809D81D4BD3E9002300201C
:10498000C6E90023E56002B0BDE8F08B0DF1060139
:10499000C0B202F003FC164BBDF80610D3E9008943
:1049A0004FEA49104FEA4812B2EB080240EAD863D6
:1049B00063EB09039800970040EA927017EB080236
:1049C00040EB0903D80040EA52708146C1F5CB4163
:1049D00008481031A0FB0131D700C9087A1849F105
:1049E0000003CCE74FF0FF30CDE74FF0FF307047CA
:1049F000802400204FECC44E10B501F06BF868B96C
:104A00000121084601F0CCF840B9012101F0C8F8B5
:104A1000044608B906F092FA204610BD4FF0FF3464
:104A2000FAE700BF30B5044683B00D46002103F01D
:104A30006DFA204603F03AFA01A9204603F058FA2D
:104A4000019BAB42F8D3204603F03CFA03B030BDE3
:104A500070B5114C0546206886B020B12946FFF795
:104A6000E1FF06B070BD0D4E0D4A0E4BADF80400CF
:104A7000039001A930460292049303F0F3F9002851
:104A8000EFD1306803F012FA01A9204603F0EAF9E9
:104A90000028E6D12068E1E7982400209024002037
:104AA00040420F005483010030B50D4C054620688C
:104AB00087B020B12946FFF7B5FF07B030BD4FF4EE
:104AC0007A72084BADF80400039001A920460292C7
:104AD000049303F0C7F90028EFD12068EAE700BF8C
:104AE00094240020548301004C4B2DE9F0411C68B4
:104AF00063689A8C12F0FF0F08D02268910600F1CB
:104B00008980636902212046984763689A8C12F471
:104B10007F4F2AD09A8C120469D49A8C57040DD5F1
:104B20004FF480412268E56842F4807222609984E3
:104B300025B10022A0681146A84763689A8CD60563
:104B400006D54FF48071226842F400722260998485
:104B50009A8C950506D54FF40071226842F40052F4
:104B6000226099849A8C500539D41A8D92B252B130
:104B70001D8D2268ADB2910604D4636903212046DD
:104B8000984763681D859A8D92B22AB19E8D2268DE
:104B9000B6B2920602D49E85BDE8F081E268002A92
:104BA000F9D04FF00108002547466B0007FA03F3E0
:104BB000334204D0E3682A460321A068984707FAE5
:104BC00008F3334208F1020804D0E3682A460421BE
:104BD000A06898470135042DE7D16368DBE74FF4FF
:104BE0008061226842F4804222609984BDE74FF4DC
:104BF00000412268E56842F0040222609984002D99
:104C00008BD000220121A068A84763689A8C5704C2
:104C100094D585E79A8CD2B29A8477E75C0000201D
:104C20002DE9F041254ED6E90050037843B32B8897
:104C3000AF8803F47C44274017F4084F22D1FA04CC
:104C400023B217D57268117C507C884212D9147C2B
:104C5000117CD0680131C9B230F814401174167C4F
:104C6000117C30F81600013164BA40BAC9B211742F
:104C70002C81A881AA8813439BB2AB80BDE8F08148
:104C80000F4BF7E710F8143B01F08CF872681378BB
:104C9000D2F8048003F0F30313702B8823F480739D
:104CA0001B041B0C2B80B8F1000FC8D0906839464C
:104CB0000022C047FA0423B2DCD5C3E79C240020BD
:104CC00000FCFFFF2DE9F04FDFF844814568D8F87C
:104CD0000040012327462C46D0F80890474999F810
:104CE0000A20D0F820B0934083B001951201C1F89A
:104CF0001438C1F81C388B624B62C56AD0F80CE0DE
:104D000007EB020C04F1140A4B63BBF1000F4FD008
:104D1000446A24F003065E44A408043E013CBE50ED
:104D20002401CCF804A0002D3DD0354EDFF8E4B0CE
:104D30003768866A44EA0B0B25F00304AD08264465
:104D40006C1E304D043E45EA0415BC18CCF808B082
:104D5000CB63BE50C4F804A0A560BEF1007F1FD095
:104D6000012399F80B10254A8B40C2F81438C2F879
:104D70001C38936253625363D0E90C23D8F8004087
:104D800023F0030520489B08019F09012A44013BA9
:104D900040EA031318376018043A67504260836092
:104DA00003B0BDE8F08F174B2343CCF80830D4E7AD
:104DB000BEF1007F816A0ED025F003030B44AD08DD
:104DC0001049043B013DBB5041EA0515CCF804A055
:104DD000CCF80850C1E7B5F5805F04D901F6FC7145
:104DE000B9500A4DF2E725F003031944AD08054B0D
:104DF0000839023DB95043EA0515E7E700000140D4
:104E00007C830100018000CA0180008EF1BF00CACE
:104E100080830100038000CA436AC1F3C21170B4E9
:104E2000C1F1040173B159B1026A456800E033B1C0
:104E300052F8044B043B01396C614362F7D10262C2
:104E400070BC7047C368B3F1007F11D00029F7D060
:104E5000C36A002BF4D0826A456800E033B152F88F
:104E6000044B043B01396C61C362F7D18262E7E70E
:104E7000C66A41683F2E456C25D81F2D12D9866A17
:104E80002B46324652F8044B203B1F2B4C614364A7
:104E9000F8D8A5F120035B09013306EB8303836295
:104EA00005F01F056B0043F001030B670DB3836A28
:104EB00053F8042B4A6183620022436B4264203B17
:104EC0004363C262BCE7836A03F1400453F8042BD6
:104ED000A3424A61FAD1B5F5007F836234BF002353
:104EE000A5F50075A6F140062CBF45644364C66273
:104EF000A6E74D61E0E700BF564B70B55C6863689C
:104F00001A6951071A611ED5E56C1DB10A21206D81
:104F1000A847636800212046BDE870401A6822F067
:104F20000C021A60D9601A6842F030021A601A68DE
:104F300022F030021A601A6822F001021A6000F8AA
:104F4000581B00F02FBFE5681946B5F1007F636B71
:104F500042D0900713D5C2F3822686B183B1206B6D
:104F600000EB860601E0002B72D08B6940F8043B11
:104F7000636BB042A3F104036363F4D12063FBB914
:104F80000123A370E36C9BB1B5F5802F58D04FD9A6
:104F9000B5F5801F4AD0B5F1007F55D0B5F5002F8B
:104FA00050D00B21A26C206D984700236168A36448
:104FB000002304F15800CB60BDE8704000F0F2BE61
:104FC000A378002BDED1B5F1007F28D02046BDE8C4
:104FD00070401146FFF720BF9606D0D5E3B9086DA3
:104FE000236B00BA1860486D00BA5860886D00BA2B
:104FF0009860C86D00BAD860086E00BA1861486E33
:1050000000BA5861886E00BA9861C86E00BAD8615B
:10501000636B002BB4D0D3E7A378002BB2D16378B5
:10502000002BD3D0E36A002BD0D070BD0221B9E7AA
:10503000B5F5803F0AD0B5F5003FB2D10321B1E705
:105040000021AFE70121ADE70621ABE70421A9E785
:10505000206395E7640000201E4B70B55C68E36830
:10506000B3F1007F00D070BDE36AB3F5805F17D85D
:1050700018469A08013A96005201656CA16A9B1B7A
:10508000AA1A3144082B6264E362A16262680DD8F7
:1050900010F03F0017D10B685361E062606470BD8F
:1050A0004FF480564FF400423046E6E7136820463E
:1050B00023F004031360FFF705FE6268136843F0F2
:1050C0000403136070BD2046BDE870401169FFF70E
:1050D000A3BE00BF640000201C4B70B55C68636811
:1050E000E66C1D694EB115F004010FD00A21A26CC7
:1050F000206DB04700226368A264012204F15800C9
:10510000A2701D61BDE8704000F04CBEE368B3F5CD
:10511000802FECD00AD9B3F5801F15D0B3F1007FF2
:1051200010D0B3F5002F09D00B21E0E7B3F5803F95
:1051300006D0B3F5003FF7D10321D8E70121D6E728
:105140000421D4E70621D2E70221D0E76400002041
:10515000EFF3108172B60E4A1378ABB901200D4BF4
:1051600010705A680C4842F001025A6098604FF47F
:1051700000200A4A10606FF078421A62DA625A63BD
:10518000DA639A64DA641A6581F31088704700BFA5
:10519000A4240020000001400028002000E100E0DD
:1051A000012310B40A4C834004EBC000C0E9011293
:1051B000D4F8DC2029B11343C4F8DC30002010BC43
:1051C000704722EA0303C4F8DC30002010BC7047AB
:1051D000A4240020184B2DE9F047DFF86090D3F8A5
:1051E0004C809D6C1F6DD9F8DC3045EA07041C40EB
:1051F0001AD0B4FA84F30126C3F11F0309EBC302EA
:10520000D2F804A006FA03F324EA0304BAF1000F6B
:1052100006D01D42906814BF012102210022D04710
:10522000B4FA84F3202BE7D1034B9D641F65C3F8C8
:105230004C80BDE8F08700BF00000140A42400209E
:1052400038B52E4B2E4ADC682368196861616169A4
:10525000196061690A40A261A26902BB6269100714
:1052600037D5A26A002A38D11A68D107FCD40022A7
:105270005968244821F0070159601862196BA56824
:1052800021F0030119631A62627715B11146E068D3
:10529000A84704F12C00BDE8384000F083BD002190
:1052A0005A68184822F007025A6018621A6BA568FB
:1052B00022F003021A6319626177002DE9D0E068D9
:1052C000A2690121A84704F12C00BDE8384000F094
:1052D00069BD62695207CAD438BD0420D4E90812F6
:1052E000D9601568083121621D6151680832596121
:1052F000A16A62620839A162986038BD740000201A
:10530000F0AF013865756C67002238B51C4B1D493C
:10531000DC681D4823681D68656165691D606569F5
:105320002940A1611862196BA56821F00301196376
:105330001A62A262627745B1A36963B9237F03F061
:10534000FF0243B91146E068A84704F12C00BDE80C
:10535000384000F027BDA3694BB9E068A26901217C
:10536000A84704F12C00BDE8384000F01BBD237FA6
:1053700003F0FF02002BE8D1217FE068A847E4E7B3
:1053800074000020F0AF013865756C672DE9F041BD
:105390000F460024104E82B0F56805EBC00556F8A4
:1053A0002420092F0CBF138D938D118ED5F800800A
:1053B0009BB20B40ADF806301386B8F1000F05D054
:1053C00023B10DF1060221466868C0470134032C61
:1053D000E5D102B0BDE8F08184000020084AD3681E
:1053E0005BB9D060C0E90033C0E902334FF400720A
:1053F000044B1A604FF480621A600020704700BFAF
:105400008400002000E100E04FF40072094BC3F873
:105410008020BFF34F8FBFF36F8F4FF48062C3F8CC
:105420008020BFF34F8FBFF36F8F0023024A1846CF
:10543000D360704700E100E0840000200A4B53F87D
:105440002030EFF3108072B63AB99A8822EA01014F
:10545000998080F31088002070479A8811439980C2
:1054600080F3108800207047840000200A4B53F816
:105470002030EFF3108072B63AB99A8922EA01011E
:10548000998180F31088002070479A89114399818F
:1054900080F310880020704784000020034B53F8ED
:1054A000203000209B880B80704700BF84000020C4
:1054B0000A4B53F82030EFF3108072B63AB99A8E47
:1054C00022EA0101998680F31088002070479A8EA5
:1054D0001143998680F310880020704784000020D3
:1054E000024B53F8203000201983704784000020BD
:1054F000024B53F82030002099837047840000202D
:10550000034B53F8203000201B8A1940118070474C
:1055100084000020034B53F8203000209B8A0B802E
:10552000704700BF8400002009210020FFF72EBF34
:105530000A210120FFF72ABF70B4456883B095F9AE
:1055400000300446002B0DDB012203F01F001F4931
:105550005B098240203341F82320BFF34F8FBFF314
:105560006F8F656822681A49938809889BB2ADF8E5
:105570000430BDF804309BB29380B2F84C3003F095
:10558000C003994209D093899BB2ADF80630B2F8B6
:105590004C3003F0C0038B42F5D100200126AB68EC
:1055A00010801D885988A2F850609E881580DD887B
:1055B000918419895B89A2F85060A2F85450A2F82E
:1055C0005810A38103B070BC704700BF00E100E039
:1055D000002C00200023F0B4644C0268248880F87A
:1055E0002A3080F82B30938803F488639C42FAD1E8
:1055F0000D688489CE7B8F886400436845618D7B0C
:1056000004F0FE04867207838E68C48193F900302B
:105610008989002D4ED1002B05854562C661018424
:105620003DDA138843F0210313809388018B03F044
:105630000303C3F1020389B29BB2A9B1002B00F0AE
:105640008980456902E0002B00F0848015F8011B79
:10565000013B9181018B9BB2013989B20183018B9E
:10566000456189B20029EED1018C89B2A1B19BB10B
:10567000013B9BB2C56901332B4401E0AB420BD027
:1056800015F8011B9181018CC561013989B2018432
:10569000018C89B20029F1D11483F0BC704701223A
:1056A00003F01F0432495B09A24041F8232002683D
:1056B000C489B6E7002544F00104AB420185C481EA
:1056C0004662C561058408DB012203F01F042849F6
:1056D0005B09A24041F823200268138843F01103BC
:1056E0001380038DB3F5807F39D94FF48073138213
:1056F000038DA3F580739BB20385038BC5899BB291
:1057000053B3138843F0200313809388018B03F075
:105710000303C3F1020489B2A4B2A9B1A4B1C3F1D5
:105720000104A4B2416901340C4401E0A1420BD050
:1057300011F8013B9381038B4161013B9BB20383D1
:10574000038B9BB2002BF1D125F00105ADB215837F
:10575000F0BC7047038C9FE71583F0BC70470021B5
:10576000038D013B9BB213820185C6E7002C00200C
:1057700000E100E02DE9F041154C0646A08C98466A
:1057800080B2B0F5217F0C4604D112490B6843F07A
:1057900030030B600027104DC8F8007005EB0615AC
:1057A00039462046EC6008F09DFF0C4A6B6806EB1A
:1057B000460602EB860665602360E7622046AE601F
:1057C000FFF7BAFE3846C8F80040BDE8F08100BFD8
:1057D0000020004034000240A0000020940000207F
:1057E00010B50446FFF7A8FE002362681846D36090
:1057F00010BD00BF38B50023037415460446FFF7FB
:10580000E9FE90F82A2052B194F82B302B601BB19E
:10581000082084F82A0038BD94F82A0038BD1046C4
:1058200004F12C0100F062FA40B9054B21681A8896
:105830008B8803F488639A42FAD1E5E70D2038BDDE
:10584000002C002030B583B004460D46002001A98D
:1058500000F086F960B9114B9D4206D80199B1FB61
:10586000F5F149088BB2994205D0012003B030BD53
:10587000042003B030BD0A4B1B88002BF5D189B240
:105880004B1E9BB213F47F40EFD1073989B243EA34
:10589000012322689BB29384E8E700BF801A0600C8
:1058A000002C0020044A21F07F0312889A4206BF90
:1058B000818100200B207047002C002070B500244F
:1058C00084B086890291ADF80C2084811A4669461D
:1058D00005460094ADF804408DF80E408DF80F4059
:1058E000FFF788FFAE8108B995F82A0004B070BDB3
:1058F000744BF0B4D8680168837A8C88A4B20481B0
:105900001BB10023C2890A8383726F4E04F0040323
:1059100035889D4270D104F00802954247D104F0C9
:10592000B003934204F4807503D1AA421FD1F0BCA6
:10593000704704F0100690F82B30B24218BF43F0C5
:10594000010304F0800618BF80F82B30B24204F047
:10595000200400F0A58043F00203A24280F82B301F
:1059600003D043F0040380F82B30AA421BD00C462E
:105970008B8803F488639A42FAD1436893F9003024
:10598000002B0DDB012203F01F0450495B09A240EC
:10599000203341F82320BFF34F8FBFF36F8F04688C
:1059A0004B4B1B8823802C30F0BC00F0FBB9B1F8C6
:1059B0004C30C3F38113002B00F082804FF48075CC
:1059C000446A0A89013BD2B222700168446A8A8A19
:1059D000013492B29BB244624AB9078DB7F5807F19
:1059E0004FD90D82028DA2F5807292B20285002BF2
:1059F000E7D13288048992E7B1F84C30028BC3F3C7
:105A00000113C3F1020392B29BB29AB1002B42D0B0
:105A1000476901E0002B3ED017F8012B013B8A813A
:105A2000028B9BB2013A92B20283028B476192B21F
:105A3000002AEFD1028B92B2DAB9028D92B2002A1B
:105A40002BD1028C92B2A2B19BB1013B9BB2C76930
:105A500001333B4401E0BB420BD017F8012B8A8194
:105A6000028CC761013A92B20284028C92B2002A7F
:105A7000F1D1038C9BB2002B7FF44DAF04238B80BC
:105A800049E7078DBFB2002FB1D0078D013FBFB2EC
:105A90000F820285ABE70023CCE7C3890B83E8E7DD
:105AA000A2427FF45EAF002B7FF45FAF08239542E4
:105AB00080F82B307FF45BAFF0BC2C3000F072B973
:105AC0002A462CE7A0000020002C002000E100E086
:105AD00094000020F8B54CF61431022500241A4B2E
:105AE0001A481A46D9601D610460D96019692943B2
:105AF000196113699B05FCD5002446F61A061F257B
:105B00004CF61430124B134F196821F00301196041
:105B100011491C605F60DE605D610C608C604C64EC
